{
  "_format": "hh-sol-artifact-1",
  "contractName": "Bank",
  "sourceName": "contracts/BankContract.sol",
  "abi": [
    {
      "inputs": [],
      "stateMutability": "nonpayable",
      "type": "constructor"
    },
    {
      "inputs": [],
      "name": "bankName",
      "outputs": [
        {
          "internalType": "string",
          "name": "",
          "type": "string"
        }
      ],
      "stateMutability": "view",
      "type": "function"
    },
    {
      "inputs": [],
      "name": "bankOwner",
      "outputs": [
        {
          "internalType": "address",
          "name": "",
          "type": "address"
        }
      ],
      "stateMutability": "view",
      "type": "function"
    },
    {
      "inputs": [
        {
          "internalType": "address",
          "name": "",
          "type": "address"
        }
      ],
      "name": "customerBalance",
      "outputs": [
        {
          "internalType": "uint256",
          "name": "",
          "type": "uint256"
        }
      ],
      "stateMutability": "view",
      "type": "function"
    },
    {
      "inputs": [],
      "name": "depositMoney",
      "outputs": [],
      "stateMutability": "payable",
      "type": "function"
    },
    {
      "inputs": [],
      "name": "getBankBalance",
      "outputs": [
        {
          "internalType": "uint256",
          "name": "",
          "type": "uint256"
        }
      ],
      "stateMutability": "view",
      "type": "function"
    },
    {
      "inputs": [],
      "name": "getCustomerBalance",
      "outputs": [
        {
          "internalType": "uint256",
          "name": "",
          "type": "uint256"
        }
      ],
      "stateMutability": "view",
      "type": "function"
    },
    {
      "inputs": [
        {
          "internalType": "string",
          "name": "_name",
          "type": "string"
        }
      ],
      "name": "setBankName",
      "outputs": [],
      "stateMutability": "nonpayable",
      "type": "function"
    },
    {
      "inputs": [
        {
          "internalType": "address payable",
          "name": "_to",
          "type": "address"
        },
        {
          "internalType": "uint256",
          "name": "_total",
          "type": "uint256"
        }
      ],
      "name": "withdrawMoney",
      "outputs": [],
      "stateMutability": "nonpayable",
      "type": "function"
    }
  ],
  "bytecode": "0x608060405234801561001057600080fd5b50336000806101000a81548173ffffffffffffffffffffffffffffffffffffffff021916908373ffffffffffffffffffffffffffffffffffffffff160217905550610dc3806100606000396000f3fe60806040526004361061007b5760003560e01c80637b83b50b1161004e5780637b83b50b1461011b578063a853409a14610146578063e147aaa714610171578063f274c8971461019c5761007b565b806316c05aa21461008057806327d358011461008a57806337ebe47b146100b557806370142690146100f2575b600080fd5b6100886101c5565b005b34801561009657600080fd5b5061009f610261565b6040516100ac91906108c2565b60405180910390f35b3480156100c157600080fd5b506100dc60048036038101906100d7919061071e565b6102ef565b6040516100e99190610964565b60405180910390f35b3480156100fe57600080fd5b5061011960048036038101906101149190610783565b610307565b005b34801561012757600080fd5b506101306103af565b60405161013d9190610964565b60405180910390f35b34801561015257600080fd5b5061015b610446565b6040516101689190610964565b60405180910390f35b34801561017d57600080fd5b5061018661048d565b60405161019391906108a7565b60405180910390f35b3480156101a857600080fd5b506101c360048036038101906101be9190610747565b6104b1565b005b6000341415610209576040517f08c379a0000000000000000000000000000000000000000000000000000000008152600401610200906108e4565b60405180910390fd5b34600260003373ffffffffffffffffffffffffffffffffffffffff1673ffffffffffffffffffffffffffffffffffffffff168152602001908152602001600020600082825461025891906109f1565b92505081905550565b6001805461026e90610b0b565b80601f016020809104026020016040519081016040528092919081815260200182805461029a90610b0b565b80156102e75780601f106102bc576101008083540402835291602001916102e7565b820191906000526020600020905b8154815290600101906020018083116102ca57829003601f168201915b505050505081565b60026020528060005260406000206000915090505481565b60008054906101000a900473ffffffffffffffffffffffffffffffffffffffff1673ffffffffffffffffffffffffffffffffffffffff163373ffffffffffffffffffffffffffffffffffffffff1614610395576040517f08c379a000000000000000000000000000000000000000000000000000000000815260040161038c90610904565b60405180910390fd5b80600190805190602001906103ab9291906105d4565b5050565b60008060009054906101000a900473ffffffffffffffffffffffffffffffffffffffff1673ffffffffffffffffffffffffffffffffffffffff163373ffffffffffffffffffffffffffffffffffffffff1614610440576040517f08c379a000000000000000000000000000000000000000000000000000000000815260040161043790610924565b60405180910390fd5b47905090565b6000600260003373ffffffffffffffffffffffffffffffffffffffff1673ffffffffffffffffffffffffffffffffffffffff16815260200190815260200160002054905090565b60008054906101000a900473ffffffffffffffffffffffffffffffffffffffff1681565b600260003373ffffffffffffffffffffffffffffffffffffffff1673ffffffffffffffffffffffffffffffffffffffff16815260200190815260200160002054811115610533576040517f08c379a000000000000000000000000000000000000000000000000000000000815260040161052a90610944565b60405180910390fd5b80600260003373ffffffffffffffffffffffffffffffffffffffff1673ffffffffffffffffffffffffffffffffffffffff16815260200190815260200160002060008282546105829190610a47565b925050819055508173ffffffffffffffffffffffffffffffffffffffff166108fc829081150290604051600060405180830381858888f193505050501580156105cf573d6000803e3d6000fd5b505050565b8280546105e090610b0b565b90600052602060002090601f0160209004810192826106025760008555610649565b82601f1061061b57805160ff1916838001178555610649565b82800160010185558215610649579182015b8281111561064857825182559160200191906001019061062d565b5b509050610656919061065a565b5090565b5b8082111561067357600081600090555060010161065b565b5090565b600061068a610685846109a4565b61097f565b9050828152602081018484840111156106a257600080fd5b6106ad848285610ac9565b509392505050565b6000813590506106c481610d48565b92915050565b6000813590506106d981610d5f565b92915050565b600082601f8301126106f057600080fd5b8135610700848260208601610677565b91505092915050565b60008135905061071881610d76565b92915050565b60006020828403121561073057600080fd5b600061073e848285016106b5565b91505092915050565b6000806040838503121561075a57600080fd5b6000610768858286016106ca565b925050602061077985828601610709565b9150509250929050565b60006020828403121561079557600080fd5b600082013567ffffffffffffffff8111156107af57600080fd5b6107bb848285016106df565b91505092915050565b6107cd81610a7b565b82525050565b60006107de826109d5565b6107e881856109e0565b93506107f8818560208601610ad8565b61080181610bfb565b840191505092915050565b60006108196029836109e0565b915061082482610c0c565b604082019050919050565b600061083c6032836109e0565b915061084782610c5b565b604082019050919050565b600061085f6036836109e0565b915061086a82610caa565b604082019050919050565b60006108826027836109e0565b915061088d82610cf9565b604082019050919050565b6108a181610abf565b82525050565b60006020820190506108bc60008301846107c4565b92915050565b600060208201905081810360008301526108dc81846107d3565b905092915050565b600060208201905081810360008301526108fd8161080c565b9050919050565b6000602082019050818103600083015261091d8161082f565b9050919050565b6000602082019050818103600083015261093d81610852565b9050919050565b6000602082019050818103600083015261095d81610875565b9050919050565b60006020820190506109796000830184610898565b92915050565b600061098961099a565b90506109958282610b3d565b919050565b6000604051905090565b600067ffffffffffffffff8211156109bf576109be610bcc565b5b6109c882610bfb565b9050602081019050919050565b600081519050919050565b600082825260208201905092915050565b60006109fc82610abf565b9150610a0783610abf565b9250827fffffffffffffffffffffffffffffffffffffffffffffffffffffffffffffffff03821115610a3c57610a3b610b6e565b5b828201905092915050565b6000610a5282610abf565b9150610a5d83610abf565b925082821015610a7057610a6f610b6e565b5b828203905092915050565b6000610a8682610a9f565b9050919050565b6000610a9882610a9f565b9050919050565b600073ffffffffffffffffffffffffffffffffffffffff82169050919050565b6000819050919050565b82818337600083830152505050565b60005b83811015610af6578082015181840152602081019050610adb565b83811115610b05576000848401525b50505050565b60006002820490506001821680610b2357607f821691505b60208210811415610b3757610b36610b9d565b5b50919050565b610b4682610bfb565b810181811067ffffffffffffffff82111715610b6557610b64610bcc565b5b80604052505050565b7f4e487b7100000000000000000000000000000000000000000000000000000000600052601160045260246000fd5b7f4e487b7100000000000000000000000000000000000000000000000000000000600052602260045260246000fd5b7f4e487b7100000000000000000000000000000000000000000000000000000000600052604160045260246000fd5b6000601f19601f8301169050919050565b7f596f75206e65656420746f206465706f73697420736f6d6520616d6f756e742060008201527f6f66206d6f6e6579210000000000000000000000000000000000000000000000602082015250565b7f596f75206d75737420626520746865206f776e657220746f207365742074686560008201527f206e616d65206f66207468652062616e6b210000000000000000000000000000602082015250565b7f596f75206d75737420626520746865206f776e6572206f66207468652062616e60008201527f6b207468652073656520616c6c2062616c616e63657300000000000000000000602082015250565b7f596f75206861766520696e73756666696369656e742066756e647320746f207760008201527f6974686472617700000000000000000000000000000000000000000000000000602082015250565b610d5181610a7b565b8114610d5c57600080fd5b50565b610d6881610a8d565b8114610d7357600080fd5b50565b610d7f81610abf565b8114610d8a57600080fd5b5056fea26469706673582212209bb06bfbeec8d978f485a3bd0256fc301287b3dbe240e4988ce8d2e596a3c50164736f6c63430008040033",
  "linkReferences": {},
  "deployedLinkReferences": {}
}